:02000002B0004C
:1040000000400B0066530B00000006000C00050288
:084010000401B61400000000D9
:044018008C500B00BD
:10401C00034613F8012B002AFBD1181A01387047FC
:10402C0009480A49884208B505D0094A824202D09B
:10403C00121A00F07BFF0748074A0021121A00F001
:10404C0083FF014808BD00BF40E60320CC520B00A3
:10405C00ACE60320ACE60320F0E7032070B5074E76
:10406C00074C00F035FEA41BA4080025AC4200D17F
:10407C0070BD56F8043B98470135F7E784520B00A6
:10408C00A8520B0000F013B808B500F01FF8BDE8FB
:10409C00084000F0D5BD00F045BA00F04BBA0078EE
:1040AC00B0FA80F04009704701230370704708B5DF
:1040BC000121072000F07CFE0121062000F078FE93
:1040CC00BDE808400121052000F072BE08B50021B2
:1040DC00072000F07EFEFF21062000F07AFEFF2173
:1040EC00052000F076FE4FF47A7000F03BFAFF21C9
:1040FC00072000F06EFE0021062000F06AFEFF2172
:10410C00052000F066FE4FF47A7000F02BFAFF21C8
:10411C00072000F05EFEFF21062000F05AFE002171
:10412C00052000F056FE4FF47A7000F01BFA0021C7
:10413C00072000F04EFE5A21062000F04AFEFF2117
:10414C00052000F046FE4FF47A7000F00BFA0021C7
:10415C00072000F03EFE0021062000F03AFEFF2171
:10416C00052000F036FE4FF47A7000F0FBF95F2169
:10417C00072000F02EFEDF21062000F02AFE0F2182
:10418C00052000F026FE4FF47A7000F0EBF9FF21C9
:10419C00072000F01EFE9B21062000F01AFE0520D1
:1041AC009B2100F016FEBDE808404FF47A7000F039
:1041BC00D9B9000010B5074B074A9A600024C3E92F
:1041CC000044032000F01AF921460120BDE81040FC
:1041DC0000F024B9ACE603200000FFFF08B5024B49
:1041EC001B685B6C019308BD4802030008B5024BC9
:1041FC001B685B68019308BD1802030008B5024BED
:10420C001B685B69019308BD1802030008B5024BDB
:10421C001B685B68019308BD2C02030008B5024BB8
:10422C001B689B68019308BD2C02030008B5024B68
:10423C001B68DB68019308BD2C02030008B5024B18
:10424C001B689B6A019308BD2C02030008B5024B46
:10425C001B689B6F019308BD2C02030008B5024B31
:10426C001B681B6A019308BD2802030008B5024BAA
:10427C001B685B6A019308BD2802030008B5024B5A
:10428C001B689B6A019308BD2802030008B5024B0A
:10429C001B68DB6A019308BD2802030008B5024BBA
:1042AC001B681B6B019308BD2802030008B5024B69
:1042BC001B685B6B019308BD2802030008B5024B19
:1042CC001B681B6C019308BD2802030008B5024B48
:1042DC001B685B69019308BD6402030008B5024BBF
:1042EC001B689B68019308BD6802030008B5024B6C
:1042FC001B68DB68019308BD6802030008B5024B1C
:10430C001B68DB69019308BD3002030008B5024B42
:10431C001B681B6A019308BD3002030008B5024BF1
:10432C001B68DB68019308BD3C02030008B5024B17
:10433C001B681B69019308BD3C02030008B5024BC6
:10434C001B685B69019308BD3C02030008B5024B76
:10435C001B689B69019308BD3C02030008B5024B26
:10436C001B68DB69019308BD3C02030008B5024BD6
:10437C001B681B6A019308BD3C02030008B5024B85
:10438C001B689B6A019308BD3C02030008B5024BF5
:10439C001B681B6C019308BD3C02030008B5024B63
:1043AC001B681B68019308BD4C02030008B5024B47
:1043BC001B681B69019308BD4C02030008B5024B36
:1043CC001B685B69019308BD4C02030008B5024BE6
:1043DC001B689B69019308BD4C02030008B5024B96
:1043EC001B68DB69019308BD4C02030008B5024B46
:1043FC001B681B6A019308BD4C02030008B5024BF5
:10440C001B685B68019308BD2002030008B5024BD2
:10441C001B685B69019308BD2002030008B5024BC1
:10442C001B68DB6A019308BD2002030008B5034B2F
:10443C001B68D3F88830019308BD000020020300EC
:10444C0008B5034B1B68D3F89430019308BD0000EA
:10445C002002030008B5024B1B68DB6B019308BDFF
:10446C004402030008B5024B1B685B68019308BD4E
:10447C004002030008B5024B1B689B68019308BD02
:10448C004002030008B5024B1B68DB68019308BDB2
:10449C004002030008B5024B1B681B69019308BD61
:1044AC004002030008B5024B1B685B69019308BD11
:1044BC004002030008B5024B1B689B69019308BDC1
:1044CC004002030008B5024B1B68DB69019308BD71
:1044DC004002030008B5024B1B681B6A019308BD20
:1044EC004002030008B5024B1B681B6B019308BD0F
:1044FC004002030008B5024B1B685B6B019308BDBF
:10450C004002030008B5024B1B681B6C019308BDED
:10451C004002030008B5024B1B685B6C019308BD9D
:10452C004002030008B5024B1B681B68019308BDD1
:10453C001C02030008B5024B1B685B68019308BDA5
:10454C001C02030008B5024B1B681B6C019308BDD1
:10455C001C02030008B5024B1B685B6C019308BD81
:10456C001C0203000021FFF751BF0000024800238A
:10457C000360FFF733BE00BFB8E60320002240689B
:10458C001146FFF7A7BF002240681146FFF7B2BFE4
:10459C0040680022FFF7A6BF4068002281F00101AD
:1045AC00FFF790BF002340681A461946FFF782BFF9
:1045BC00002340681A461946FFF774BF0022406872
:1045CC001146FFF767BF002240681146FFF752BF44
:1045DC00406800220221FFF755BF002340681A46AD
:1045EC00FFF740BF024B03225A60024A1A60704721
:1045FC00BCE60320A8500B007047F8B506461546DC
:10460C000C468F18BC4206D0336814F8011B9B680B
:10461C0030469847F6E72846F8BD007C0022FFF7A5
:10462C001DBE007C0021FFF721BE007C0021FFF79E
:10463C0025BE007C0021FFF729BE007C0021FFF77E
:10464C002DBE10B514210446FFF727FD204610BDE2
:10465C0038B5044615464FF47A730022C4E9012399
:10466C00094B2174084623602946FFF727FEBF300B
:10467C0008D16B69DB0705D56868FFF75BFFE86855
:10468C00FFF758FF204638BDE4500B00704710B5BB
:10469C0018210446FFF701FD204610BDF0B5037D3F
:1046AC00062B8DB00E4600F104074FF0000412D01B
:1046BC0000F1080515F8011D0A22304600F043F9F7
:1046CC00AF42044419D0002CF4D02E21304600F017
:1046DC0037F90444EEE72F236A4639460A208DF851
:1046EC000040FFF7F3FD6846FFF792FC3368024683
:1046FC00DB68694630469847044620460DB0F0BD4D
:10470C0010B5054B0446112240F8043B002100F083
:10471C001BFC204610BD00BF0C510B000346074A82
:10472C0010B543F8042B01F1100251F8044B43F877
:10473C00044B9142F9D10A781A7010BD0C510B0040
:10474C0010B59DF8084044EA032343EA024242EACA
:10475C00016104234160037510BD000007B5064BD1
:10476C000360CB7800938B784A780978FFF7E8FFE1
:10477C0003B05DF804FB00BF0C510B00014B024A67
:10478C001A607047C4E6032018510B0000234068E0
:10479C001A46FFF767BE406800220221FFF772BE7F
:1047AC00002240681146FFF765BE002240681146A2
:1047BC00FFF770BE002340681A461946FFF772BE19
:1047CC00002340681A461946FFF774BE4068002162
:1047DC00FFF798BE40680021FFF79CBE406800229E
:1047EC0081F00101FFF76EBE40680022FFF77ABE30
:1047FC00002240681146FFF77DBE0022406811463A
:10480C00FFF768BE2DE9F04395B014460D460746F8
:10481C00FFF776FF00211C220DA8009100F094FBFD
:10482C0040230C9320466B460CAA0021FFF75EFD3B
:10483C00044600284BD1024601216868FFF72AFE86
:10484C000221804622466868FFF724FE009E8146BE
:10485C002146002E3BD0002939D17368022B03D09E
:10486C000A2B11D0F669F4E7B8F1000FFAD0716990
:10487C0006A8043107ADFFF771FF0FCD3C1D0FC427
:10488C002B6823704146EDE7B9F1000FEAD074694B
:10489C00102201A800F058FB06238DF8143001AD4E
:1048AC0004F108031834186859682A4603C20833FF
:1048BC00A3421546F7D101A906A807ADFFF72EFFB5
:1048CC000FCD3C1D0FC42B6823704946CAE70098D6
:1048DC00FFF704FD384615B0BDE8F083024B034AE0
:1048EC001A6000225A607047C8E6032024510B005E
:1048FC00F8B506460D468F180024BD420CD033681F
:10490C0015F8011B9B6830469847031E01DB1C44BD
:10491C00F3E7002C08BF1C462046F8BD13B504462F
:10492C00084659B10191FFF773FB23680199DB68C5
:10493C000246204602B0BDE81040184702B010BD38
:10494C0003689B68184730B58BB00023012A8DF89B
:10495C00243098BF0A2209AC0D46B1FBF2F101FBE1
:10496C00125303F0FF03092B94BF30333733DBB200
:10497C00AA4204F8013DEFD92146FFF7CFFF0BB057
:10498C0030BD0000014B00229A607047D0E6032036
:10499C0010B5044608462170FFF7B0FC0023636095
:1049AC00204610BD054B02221A60054B054A9A6041
:1049BC000020C3E90000FFF721BD00BFECE6032097
:1049CC00E0E603200000FFFF024B1A68024B1A605E
:1049DC00704700BF40E60320F0E6032070474174A7
:1049EC00704708B5007CFFF7C9FC20EAE07008BDF1
:1049FC0008B5007CFFF79AFC20EAE07008BD08B50A
:104A0C00007CFFF7A3FC40EAE07008BD08B5007C11
:104A1C00FFF794FC40EAE07008BD007CFFF79EBCF9
:104A2C0037B5457C04462DB1207C03B0BDE8304041
:104A3C00FFF774BC007C0191FFF7A0FC00280199E2
:104A4C00F2DC284603B030BD10B514210446FFF744
:104A5C0024FB204610BD000010B54FF47A730446B9
:104A6C00084611460022C4E90123044B23600123AC
:104A7C0020746374FFF78AFC204610BD7C510B0038
:104A8C00417470477047704708B50021007CFFF7F0
:104A9C009DFC40EAE07008BD08B50121007CFFF7E1
:104AAC0095FC40EAE07008BD08B5007CFFF786FC79
:104ABC0020EAE07008BD08B5007CFFF777FC20EA1F
:104ACC00E07008BD13B50446007C0191FFF776FC3D
:104ADC000028019901DC607C20B1207CFFF77EFC72
:104AEC0020EAE07002B010BD007CFFF77FBC10B56F
:104AFC0014210446FFF7D1FA204610BD10B54FF42F
:104B0C007A73044608460021C4E90113044B236060
:104B1C000123207463741146FFF740FC204610BD3E
:104B2C00AC510B0010B514220446002100F00CFA15
:104B3C00204610BD10B50F4C88B003A8FFF7F2FF4C
:104B4C002178BFF35B8F11F001010FD12046019149
:104B5C00FFF7A5FA019948B103AA0748FFF7CEFF62
:104B6C002046FFF7A1FA054800F0DAF9024808B030
:104B7C0010BD00BFF4E60320F8E60320914A0B00B9
:104B8C00002240681146FFF785BC002240681146A0
:104B9C00FFF7A0BC002240681146FFF7ABBC406891
:104BAC000022FFF79FBC4068002281F00101FFF753
:104BBC0089BC002340681A461946FFF77BBC0023CA
:104BCC0040681A461946FFF76DBC00224068114632
:104BDC00FFF750BC406800220221FFF753BC0023B2
:104BEC0040681A46FFF73EBC024B04225A60024A48
:104BFC001A6070470CE70320DC510B00014B186066
:104C0C00704700BF44E6032008B50B4B43B1FFF7D8
:104C1C0091FF03681B699847002801DDAFF3008002
:104C2C00064B43B100F056F903681B6998470028FE
:104C3C0001DDAFF3008008BD0000000000000000A3
:104C4C0008B5FFF7E1FFFFF7D9FA014B186008BD73
:104C5C0028E703200548064A064908B5121A00F051
:104C6C0065F9054B054A1A6008BD00BF00F4032026
:104C7C0004F4032038530B0000F403201E1C279A65
:104C8C0007B5002300931A466FF07701FFF7D8FBA6
:104C9C0003B05DF804FB000007B543880A2B08D06D
:104CAC00502B0BD1094B1B684BB103B05DF804EBD7
:104CBC001847FFF7E5FF03B05DF804FB00230093F2
:104CCC001A466FF07701FFF7BBFBF4E718E70320F8
:104CDC0010B512480021FFF73DFC114B1A68114B1F
:104CEC009A42114B0CBF012200221A7001D0FFF71F
:104CFC00B1FFFFF77BFA044600F02EF90B4B13B112
:104D0C002046AFF3008000210848FFF7A3FBBDE865
:104D1C00104007480021FFF789BB00BF094C0B006E
:104D2C0000F403201E1C279A14E703200000000047
:104D3C00A54C0B00232813B502D9002002B010BDDE
:104D4C00A0F10B03022B1AD8174C2178BFF35B8F01
:104D5C0011F001010BD120460191FFF7A0F9019947
:104D6C0028B11248FFF714FE2046FFF79DF90F4BB0
:104D7C001878FFF7CBFA0028DFD10120DEE70128F5
:104D8C0009D800F067F80021007CFFF78FFA80F05B
:104D9C000100C0B2D2E709380128EED800F09AF829
:104DAC00007CFFF7E3FAF2E71CE7032020E703207F
:104DBC00232838B504460D460AD8FF2908D0FFF73A
:104DCC00B9FF28B129462046BDE83840FFF726BA7E
:104DDC0038BD38B504460D46FFF7ACFFF0B10421E1
:104DEC002046FFF713FA042805D1A9B22046BDE8E6
:104DFC003840FFF723BA02212046FFF707FA0228B2
:104E0C000CD12046FFF712FA012801D0042805D155
:104E1C0029462046BDE83840FFF718BA38BD704720
:104E2C0038B50A4B0360012304464361084920202E
:104E3C0000F074F8202560600549A560284600F054
:104E4C006DF8C4E90305204638BD00BF1800010009
:104E5C0010520B0030B50E4D2978BFF35B8F11F05B
:104E6C00010487B011D12846FFF719F968B16846DB
:104E7C00FFF7D6FF6A4621460648FFF7E9FB2846AE
:104E8C00FFF712F9044800F04BF8024807B030BDA8
:104E9C002CE7032030E703202B4E0B00704700005B
:104EAC0038B5044614252A46002100F04DF825801B
:104EBC004025074925812846258200F02FF8044912
:104ECC006060284600F02AF8E060204638BD00BF3C
:104EDC0010520B0030B50E4D2978BFF35B8F11F0DB
:104EEC00010487B011D12846FFF7D9F868B101A8A1
:104EFC00FFF7D6FF01AA21460648FFF7ADFD28466D
:104F0C00FFF7D2F8044800F00BF8024807B030BDA8
:104F1C0044E7032048E70320A94E0B00FFF7BBB87A
:104F2C00002301461A46184600F044B80A44914240
:104F3C0000F1FF3300D1704710B511F8014B03F8A5
:104F4C00014F9142F9D110BD02440346934200D166
:104F5C00704703F8011BF9E738B5104B1D68AB6BB4
:104F6C000446B3B91820FFF7DDFA0246A86320B94E
:104F7C000B4B0C484221FFF7E5FA0B490B4BC0E9F0
:104F8C0000130B4B83600B23838100210120C2E9AA
:104F9C000401AB6B00221C615A6138BD44E603204E
:104FAC0011520B0028520B000E33CDAB34126DE6B0
:104FBC00ECDE05002DE9F843DFF8B8800646D8F89A
:104FCC0000001F460D46914600F056F8254B1C6814
:104FDC0034B9254C1C60254B13B11B68C4F88830C0
:104FEC0063681F2B07DDD8F8000000F047F84FF07E
:104FFC00FF30BDE8F8834EB3D4F8880088B91C4B59
:10500C0023B9D8F8000000F038F8F0E74FF48470BA
:10501C00FFF788FA0028F4D00023C0E94033C4F825
:10502C008800636840F8239001229A4000EB8301CA
:10503C00D0F800311343C0F80031022EC1F8807053
:10504C0002BFD0F804311343C0F804316368D8F8B8
:10505C0000005A1C0233626044F8235000F00EF832
:10506C000020C6E7E8E703205CE70320000000000F
:10507C0031450B00A8E603207047704770470000CD
:10508C002D400B0069400B0091400B0095400B002C
:10509C00000000000000000000000000E7450B00CD
:1050AC00DD450B00D3450B00C9450B00BD450B007E
:1050BC00B1450B00D9470B00E1470B00A5450B0090
:1050CC009D450B0093450B0089450B0011480B00C7
:1050DC00000000000000000005460B004F460B00CE
:1050EC0027460B0007460B002F460B0037460B00DC
:1050FC003F460B0047460B0000000000000000007C
:10510C00A9460B0099460B009B460B006170700082
:10511C00000000000000000099470B00A3470B00A3
:10512C00AD470B00B7470B00C1470B00CD470B0039
:10513C00D9470B00E1470B00E9470B00F5470B0083
:10514C00FD470B0007480B0011480B0025592D2576
:10515C006D2D25645425483A254D3A2553257A0062
:10516C0061736374696D650000000000000000004D
:10517C00E9490B00554A0B002D4A0B00FD480B006A
:10518C00FD490B00194A0B000B4A0B00274A0B0078
:10519C00EB490B00EF490B00000000000000000081
:1051AC00934A0B00FB4A0B00D14A0B00FD480B0045
:1051BC00C34A0B00954A0B00A54A0B00F54A0B009D
:1051CC00B54A0B008D4A0B000000000000000000E7
:1051DC00EB4B0B00E14B0B00D74B0B008D4B0B003B
:1051EC00CB4B0B00BF4B0B00D9470B00E1470B001F
:1051FC00B34B0B00AB4B0B00A14B0B00974B0B00B5
:10520C0011480B00005245454E54206D616C6C6F7B
:10521C006320737563636565646564002F746D70DA
:10522C002F6A656E6B696E732D4743432D31302D9C
:10523C00706970656C696E652D34385F3230323050
:10524C00313132345F313630363138303633392FF4
:10525C007372632F6E65776C69622F6E65776C69FC
:10526C00622F6C6962632F7374646C69622F726154
:10527C006E642E6300000000C1410B0079450B00E9
:10528C00F1450B0089470B00E9480B0091490B00D5
:0C529C00B1490B00D5490B00F54B0B008D
:1052A800040000001400000003000000474E5500F1
:1052B8009A681A1365E1EC2A4201AA70006FF9CFC7
:0452C8009D3D67E7BA
:1052CC006C510B0048E603200000000000000000B9
:1052DC0000000000000000000000000000000000C2
:1052EC0000000000000000000000000000000000B2
:1052FC0000000000000000000000000000000000A2
:10530C000000000000000000000000000000000091
:10531C000000000000000000000000000000000081
:0C532C000000000000000000ECE703207F
:045338000000000071
:1053420000000102030405060708090A0B0C0D0EF2
:105352000F101112131415161718191A1B1C1D1EE3
:045362001F202800E0
:04536600785634122F
:04000003B000401CED
:00000001FF
